{
    "_format": "hh-sol-artifact-1",
    "contractName": "DaikonLaunchpad",
    "sourceName": "contracts/DaikonLaunchpad.sol",
    "abi": [
        {
            "inputs": [],
            "stateMutability": "nonpayable",
            "type": "constructor"
        },
        {
            "inputs": [
                {
                    "internalType": "address",
                    "name": "owner",
                    "type": "address"
                }
            ],
            "name": "OwnableInvalidOwner",
            "type": "error"
        },
        {
            "inputs": [
                {
                    "internalType": "address",
                    "name": "account",
                    "type": "address"
                }
            ],
            "name": "OwnableUnauthorizedAccount",
            "type": "error"
        },
        {
            "inputs": [],
            "name": "ReentrancyGuardReentrantCall",
            "type": "error"
        },
        {
            "anonymous": false,
            "inputs": [
                {
                    "indexed": true,
                    "internalType": "uint256",
                    "name": "daikonId",
                    "type": "uint256"
                },
                {
                    "indexed": true,
                    "internalType": "address",
                    "name": "contributor",
                    "type": "address"
                },
                {
                    "indexed": false,
                    "internalType": "uint256",
                    "name": "amount",
                    "type": "uint256"
                }
            ],
            "name": "Contribution",
            "type": "event"
        },
        {
            "anonymous": false,
            "inputs": [
                {
                    "indexed": true,
                    "internalType": "uint256",
                    "name": "daikonId",
                    "type": "uint256"
                },
                {
                    "indexed": true,
                    "internalType": "address",
                    "name": "owner",
                    "type": "address"
                },
                {
                    "indexed": false,
                    "internalType": "string",
                    "name": "name",
                    "type": "string"
                },
                {
                    "indexed": false,
                    "internalType": "string",
                    "name": "symbol",
                    "type": "string"
                }
            ],
            "name": "DaikonCreated",
            "type": "event"
        },
        {
            "anonymous": false,
            "inputs": [
                {
                    "indexed": true,
                    "internalType": "uint256",
                    "name": "daikonId",
                    "type": "uint256"
                },
                {
                    "indexed": true,
                    "internalType": "address",
                    "name": "initiator",
                    "type": "address"
                },
                {
                    "indexed": false,
                    "internalType": "uint256",
                    "name": "treasuryAmount",
                    "type": "uint256"
                }
            ],
            "name": "DaikonGraduated",
            "type": "event"
        },
        {
            "anonymous": false,
            "inputs": [
                {
                    "indexed": true,
                    "internalType": "address",
                    "name": "previousOwner",
                    "type": "address"
                },
                {
                    "indexed": true,
                    "internalType": "address",
                    "name": "newOwner",
                    "type": "address"
                }
            ],
            "name": "OwnershipTransferred",
            "type": "event"
        },
        {
            "anonymous": false,
            "inputs": [
                {
                    "indexed": true,
                    "internalType": "uint256",
                    "name": "daikonId",
                    "type": "uint256"
                },
                {
                    "indexed": true,
                    "internalType": "uint256",
                    "name": "saleIndex",
                    "type": "uint256"
                },
                {
                    "indexed": true,
                    "internalType": "address",
                    "name": "contributor",
                    "type": "address"
                },
                {
                    "indexed": false,
                    "internalType": "uint256",
                    "name": "amount",
                    "type": "uint256"
                }
            ],
            "name": "PeriodicSaleContribution",
            "type": "event"
        },
        {
            "anonymous": false,
            "inputs": [
                {
                    "indexed": true,
                    "internalType": "uint256",
                    "name": "daikonId",
                    "type": "uint256"
                },
                {
                    "indexed": true,
                    "internalType": "uint256",
                    "name": "saleIndex",
                    "type": "uint256"
                },
                {
                    "indexed": false,
                    "internalType": "uint256",
                    "name": "seedsAllocated",
                    "type": "uint256"
                },
                {
                    "indexed": false,
                    "internalType": "uint256",
                    "name": "amountRaised",
                    "type": "uint256"
                },
                {
                    "indexed": false,
                    "internalType": "uint256",
                    "name": "totalSeeds",
                    "type": "uint256"
                }
            ],
            "name": "PeriodicSaleEnded",
            "type": "event"
        },
        {
            "anonymous": false,
            "inputs": [
                {
                    "indexed": true,
                    "internalType": "uint256",
                    "name": "daikonId",
                    "type": "uint256"
                },
                {
                    "indexed": true,
                    "internalType": "uint256",
                    "name": "saleIndex",
                    "type": "uint256"
                },
                {
                    "indexed": false,
                    "internalType": "uint256",
                    "name": "saleEndTimestamp",
                    "type": "uint256"
                },
                {
                    "indexed": false,
                    "internalType": "uint256",
                    "name": "seedsForSale",
                    "type": "uint256"
                }
            ],
            "name": "PeriodicSaleStarted",
            "type": "event"
        },
        {
            "anonymous": false,
            "inputs": [
                {
                    "indexed": true,
                    "internalType": "uint256",
                    "name": "daikonId",
                    "type": "uint256"
                },
                {
                    "indexed": false,
                    "internalType": "uint8",
                    "name": "newPhase",
                    "type": "uint8"
                }
            ],
            "name": "PhaseAdvanced",
            "type": "event"
        },
        {
            "anonymous": false,
            "inputs": [
                {
                    "indexed": true,
                    "internalType": "uint256",
                    "name": "daikonId",
                    "type": "uint256"
                },
                {
                    "indexed": true,
                    "internalType": "address",
                    "name": "contributor",
                    "type": "address"
                },
                {
                    "indexed": false,
                    "internalType": "uint256",
                    "name": "seedsAmount",
                    "type": "uint256"
                }
            ],
            "name": "SeedsAssigned",
            "type": "event"
        },
        {
            "anonymous": false,
            "inputs": [
                {
                    "indexed": true,
                    "internalType": "uint256",
                    "name": "daikonId",
                    "type": "uint256"
                },
                {
                    "indexed": true,
                    "internalType": "address",
                    "name": "redeemer",
                    "type": "address"
                },
                {
                    "indexed": false,
                    "internalType": "uint256",
                    "name": "seedsAmount",
                    "type": "uint256"
                },
                {
                    "indexed": false,
                    "internalType": "uint256",
                    "name": "ethAmount",
                    "type": "uint256"
                }
            ],
            "name": "SeedsRedeemed",
            "type": "event"
        },
        {
            "anonymous": false,
            "inputs": [
                {
                    "indexed": true,
                    "internalType": "uint256",
                    "name": "daikonId",
                    "type": "uint256"
                },
                {
                    "indexed": true,
                    "internalType": "address",
                    "name": "candidate",
                    "type": "address"
                }
            ],
            "name": "StewardCandidateRegistered",
            "type": "event"
        },
        {
            "inputs": [
                {
                    "internalType": "uint256",
                    "name": "_daikonId",
                    "type": "uint256"
                }
            ],
            "name": "checkAndAdvancePhase",
            "outputs": [],
            "stateMutability": "nonpayable",
            "type": "function"
        },
        {
            "inputs": [
                {
                    "internalType": "uint256",
                    "name": "_daikonId",
                    "type": "uint256"
                }
            ],
            "name": "checkAndClaimSeeds",
            "outputs": [],
            "stateMutability": "nonpayable",
            "type": "function"
        },
        {
            "inputs": [
                {
                    "internalType": "uint256",
                    "name": "_daikonId",
                    "type": "uint256"
                }
            ],
            "name": "checkAndStartNewSale",
            "outputs": [],
            "stateMutability": "nonpayable",
            "type": "function"
        },
        {
            "inputs": [
                {
                    "internalType": "uint256",
                    "name": "_daikonId",
                    "type": "uint256"
                }
            ],
            "name": "claimAllPendingSeeds",
            "outputs": [],
            "stateMutability": "nonpayable",
            "type": "function"
        },
        {
            "inputs": [
                {
                    "internalType": "uint256",
                    "name": "_daikonId",
                    "type": "uint256"
                }
            ],
            "name": "claimSeeds",
            "outputs": [],
            "stateMutability": "nonpayable",
            "type": "function"
        },
        {
            "inputs": [
                {
                    "internalType": "uint256",
                    "name": "_daikonId",
                    "type": "uint256"
                },
                {
                    "internalType": "uint256",
                    "name": "_saleId",
                    "type": "uint256"
                }
            ],
            "name": "claimSeedsFromPastSale",
            "outputs": [],
            "stateMutability": "nonpayable",
            "type": "function"
        },
        {
            "inputs": [
                {
                    "internalType": "uint256",
                    "name": "_daikonId",
                    "type": "uint256"
                }
            ],
            "name": "contributeToDaikon",
            "outputs": [],
            "stateMutability": "payable",
            "type": "function"
        },
        {
            "inputs": [
                {
                    "internalType": "uint256",
                    "name": "_daikonId",
                    "type": "uint256"
                }
            ],
            "name": "contributeToPeriodicSale",
            "outputs": [],
            "stateMutability": "payable",
            "type": "function"
        },
        {
            "inputs": [
                {
                    "internalType": "string",
                    "name": "_name",
                    "type": "string"
                },
                {
                    "internalType": "string",
                    "name": "_symbol",
                    "type": "string"
                },
                {
                    "internalType": "uint256",
                    "name": "_contributionPeriod",
                    "type": "uint256"
                },
                {
                    "internalType": "string",
                    "name": "_data",
                    "type": "string"
                }
            ],
            "name": "createDaikon",
            "outputs": [
                {
                    "internalType": "uint256",
                    "name": "",
                    "type": "uint256"
                }
            ],
            "stateMutability": "nonpayable",
            "type": "function"
        },
        {
            "inputs": [],
            "name": "daikonGraduationCeremonyAddress",
            "outputs": [
                {
                    "internalType": "address",
                    "name": "",
                    "type": "address"
                }
            ],
            "stateMutability": "view",
            "type": "function"
        },
        {
            "inputs": [
                {
                    "internalType": "uint256",
                    "name": "",
                    "type": "uint256"
                }
            ],
            "name": "daikons",
            "outputs": [
                {
                    "internalType": "uint256",
                    "name": "id",
                    "type": "uint256"
                },
                {
                    "internalType": "address",
                    "name": "deployer",
                    "type": "address"
                },
                {
                    "internalType": "string",
                    "name": "name",
                    "type": "string"
                },
                {
                    "internalType": "string",
                    "name": "symbol",
                    "type": "string"
                },
                {
                    "internalType": "uint256",
                    "name": "creationTime",
                    "type": "uint256"
                },
                {
                    "internalType": "uint256",
                    "name": "totalContributions",
                    "type": "uint256"
                },
                {
                    "internalType": "uint8",
                    "name": "phase",
                    "type": "uint8"
                },
                {
                    "internalType": "uint256",
                    "name": "nextPhaseTimestamp",
                    "type": "uint256"
                },
                {
                    "internalType": "bool",
                    "name": "seedsAssignable",
                    "type": "bool"
                },
                {
                    "internalType": "string",
                    "name": "data",
                    "type": "string"
                },
                {
                    "internalType": "uint256",
                    "name": "totalSeeds",
                    "type": "uint256"
                },
                {
                    "internalType": "uint256",
                    "name": "circulatingSeeds",
                    "type": "uint256"
                },
                {
                    "components": [
                        {
                            "internalType": "uint256",
                            "name": "periodicSaleEndTimestamp",
                            "type": "uint256"
                        },
                        {
                            "internalType": "uint256",
                            "name": "seedsForPeriodicSale",
                            "type": "uint256"
                        },
                        {
                            "internalType": "uint256",
                            "name": "contributionsInCurrentSale",
                            "type": "uint256"
                        },
                        {
                            "internalType": "uint256",
                            "name": "currentSaleIndex",
                            "type": "uint256"
                        }
                    ],
                    "internalType": "struct DaikonLaunchpad.PeriodicSaleInfo",
                    "name": "periodicSaleInfo",
                    "type": "tuple"
                }
            ],
            "stateMutability": "view",
            "type": "function"
        },
        {
            "inputs": [
                {
                    "internalType": "address",
                    "name": "",
                    "type": "address"
                },
                {
                    "internalType": "uint256",
                    "name": "",
                    "type": "uint256"
                }
            ],
            "name": "deployerToDaikonIds",
            "outputs": [
                {
                    "internalType": "uint256",
                    "name": "",
                    "type": "uint256"
                }
            ],
            "stateMutability": "view",
            "type": "function"
        },
        {
            "inputs": [
                {
                    "internalType": "uint256",
                    "name": "_daikonId",
                    "type": "uint256"
                }
            ],
            "name": "getCurrentPeriodicSaleInfo",
            "outputs": [
                {
                    "internalType": "uint256",
                    "name": "periodicSaleEndTimestamp",
                    "type": "uint256"
                },
                {
                    "internalType": "uint256",
                    "name": "seedsForPeriodicSale",
                    "type": "uint256"
                },
                {
                    "internalType": "uint256",
                    "name": "contributionsInCurrentSale",
                    "type": "uint256"
                },
                {
                    "internalType": "uint256",
                    "name": "currentSaleIndex",
                    "type": "uint256"
                }
            ],
            "stateMutability": "view",
            "type": "function"
        },
        {
            "inputs": [
                {
                    "internalType": "uint256",
                    "name": "_daikonId",
                    "type": "uint256"
                }
            ],
            "name": "getDaikonContributions",
            "outputs": [
                {
                    "internalType": "uint256",
                    "name": "",
                    "type": "uint256"
                }
            ],
            "stateMutability": "view",
            "type": "function"
        },
        {
            "inputs": [],
            "name": "getDaikonCount",
            "outputs": [
                {
                    "internalType": "uint256",
                    "name": "",
                    "type": "uint256"
                }
            ],
            "stateMutability": "view",
            "type": "function"
        },
        {
            "inputs": [
                {
                    "internalType": "uint256",
                    "name": "_daikonId",
                    "type": "uint256"
                }
            ],
            "name": "getDaikonSeeds",
            "outputs": [
                {
                    "internalType": "uint256",
                    "name": "totalSeeds",
                    "type": "uint256"
                },
                {
                    "internalType": "uint256",
                    "name": "circulatingSeeds",
                    "type": "uint256"
                }
            ],
            "stateMutability": "view",
            "type": "function"
        },
        {
            "inputs": [
                {
                    "internalType": "address",
                    "name": "_deployer",
                    "type": "address"
                }
            ],
            "name": "getDaikonsByDeployer",
            "outputs": [
                {
                    "internalType": "uint256[]",
                    "name": "",
                    "type": "uint256[]"
                }
            ],
            "stateMutability": "view",
            "type": "function"
        },
        {
            "inputs": [
                {
                    "internalType": "uint256",
                    "name": "_daikonId",
                    "type": "uint256"
                },
                {
                    "internalType": "address",
                    "name": "_user",
                    "type": "address"
                }
            ],
            "name": "getRedeemableEth",
            "outputs": [
                {
                    "internalType": "uint256",
                    "name": "",
                    "type": "uint256"
                }
            ],
            "stateMutability": "view",
            "type": "function"
        },
        {
            "inputs": [
                {
                    "internalType": "uint256",
                    "name": "_daikonId",
                    "type": "uint256"
                },
                {
                    "internalType": "uint256",
                    "name": "_saleId",
                    "type": "uint256"
                }
            ],
            "name": "getSaleRecord",
            "outputs": [
                {
                    "internalType": "uint256",
                    "name": "seedsAllocated",
                    "type": "uint256"
                },
                {
                    "internalType": "uint256",
                    "name": "amountRaised",
                    "type": "uint256"
                },
                {
                    "internalType": "uint256",
                    "name": "totalSeeds",
                    "type": "uint256"
                }
            ],
            "stateMutability": "view",
            "type": "function"
        },
        {
            "inputs": [
                {
                    "internalType": "uint256",
                    "name": "_daikonId",
                    "type": "uint256"
                }
            ],
            "name": "getStewardCandidateCount",
            "outputs": [
                {
                    "internalType": "uint256",
                    "name": "",
                    "type": "uint256"
                }
            ],
            "stateMutability": "view",
            "type": "function"
        },
        {
            "inputs": [
                {
                    "internalType": "uint256",
                    "name": "_daikonId",
                    "type": "uint256"
                }
            ],
            "name": "getStewardCandidates",
            "outputs": [
                {
                    "internalType": "address[]",
                    "name": "",
                    "type": "address[]"
                }
            ],
            "stateMutability": "view",
            "type": "function"
        },
        {
            "inputs": [
                {
                    "internalType": "uint256",
                    "name": "_daikonId",
                    "type": "uint256"
                },
                {
                    "internalType": "address",
                    "name": "_user",
                    "type": "address"
                }
            ],
            "name": "getUserContributions",
            "outputs": [
                {
                    "internalType": "uint256",
                    "name": "",
                    "type": "uint256"
                }
            ],
            "stateMutability": "view",
            "type": "function"
        },
        {
            "inputs": [
                {
                    "internalType": "uint256",
                    "name": "_daikonId",
                    "type": "uint256"
                },
                {
                    "internalType": "uint256",
                    "name": "_saleId",
                    "type": "uint256"
                },
                {
                    "internalType": "address",
                    "name": "_user",
                    "type": "address"
                }
            ],
            "name": "getUserPeriodicSaleContribution",
            "outputs": [
                {
                    "internalType": "uint256",
                    "name": "",
                    "type": "uint256"
                }
            ],
            "stateMutability": "view",
            "type": "function"
        },
        {
            "inputs": [
                {
                    "internalType": "uint256",
                    "name": "_daikonId",
                    "type": "uint256"
                },
                {
                    "internalType": "address",
                    "name": "_user",
                    "type": "address"
                }
            ],
            "name": "getUserSeeds",
            "outputs": [
                {
                    "internalType": "uint256",
                    "name": "",
                    "type": "uint256"
                }
            ],
            "stateMutability": "view",
            "type": "function"
        },
        {
            "inputs": [
                {
                    "internalType": "uint256",
                    "name": "_daikonId",
                    "type": "uint256"
                }
            ],
            "name": "graduate",
            "outputs": [],
            "stateMutability": "nonpayable",
            "type": "function"
        },
        {
            "inputs": [],
            "name": "graduationCeremonyAddressSet",
            "outputs": [
                {
                    "internalType": "bool",
                    "name": "",
                    "type": "bool"
                }
            ],
            "stateMutability": "view",
            "type": "function"
        },
        {
            "inputs": [
                {
                    "internalType": "uint256",
                    "name": "_daikonId",
                    "type": "uint256"
                },
                {
                    "internalType": "address",
                    "name": "_candidate",
                    "type": "address"
                }
            ],
            "name": "isStewardCandidate",
            "outputs": [
                {
                    "internalType": "bool",
                    "name": "",
                    "type": "bool"
                }
            ],
            "stateMutability": "view",
            "type": "function"
        },
        {
            "inputs": [
                {
                    "internalType": "uint256",
                    "name": "",
                    "type": "uint256"
                },
                {
                    "internalType": "address",
                    "name": "",
                    "type": "address"
                }
            ],
            "name": "isStewardCandidateRegistered",
            "outputs": [
                {
                    "internalType": "bool",
                    "name": "",
                    "type": "bool"
                }
            ],
            "stateMutability": "view",
            "type": "function"
        },
        {
            "inputs": [],
            "name": "maxContribution",
            "outputs": [
                {
                    "internalType": "uint256",
                    "name": "",
                    "type": "uint256"
                }
            ],
            "stateMutability": "view",
            "type": "function"
        },
        {
            "inputs": [],
            "name": "maxContributionWithBuffer",
            "outputs": [
                {
                    "internalType": "uint256",
                    "name": "",
                    "type": "uint256"
                }
            ],
            "stateMutability": "view",
            "type": "function"
        },
        {
            "inputs": [],
            "name": "owner",
            "outputs": [
                {
                    "internalType": "address",
                    "name": "",
                    "type": "address"
                }
            ],
            "stateMutability": "view",
            "type": "function"
        },
        {
            "inputs": [
                {
                    "internalType": "uint256",
                    "name": "",
                    "type": "uint256"
                },
                {
                    "internalType": "uint256",
                    "name": "",
                    "type": "uint256"
                },
                {
                    "internalType": "address",
                    "name": "",
                    "type": "address"
                }
            ],
            "name": "periodicSaleContributions",
            "outputs": [
                {
                    "internalType": "uint256",
                    "name": "",
                    "type": "uint256"
                }
            ],
            "stateMutability": "view",
            "type": "function"
        },
        {
            "inputs": [
                {
                    "internalType": "uint256",
                    "name": "_daikonId",
                    "type": "uint256"
                },
                {
                    "internalType": "uint256",
                    "name": "_seedAmount",
                    "type": "uint256"
                }
            ],
            "name": "redeemSeeds",
            "outputs": [],
            "stateMutability": "nonpayable",
            "type": "function"
        },
        {
            "inputs": [
                {
                    "internalType": "uint256",
                    "name": "_daikonId",
                    "type": "uint256"
                }
            ],
            "name": "registerAsStewardCandidate",
            "outputs": [],
            "stateMutability": "payable",
            "type": "function"
        },
        {
            "inputs": [],
            "name": "renounceOwnership",
            "outputs": [],
            "stateMutability": "nonpayable",
            "type": "function"
        },
        {
            "inputs": [
                {
                    "internalType": "uint256",
                    "name": "",
                    "type": "uint256"
                },
                {
                    "internalType": "uint256",
                    "name": "",
                    "type": "uint256"
                }
            ],
            "name": "saleRecords",
            "outputs": [
                {
                    "internalType": "uint256",
                    "name": "seedsAllocated",
                    "type": "uint256"
                },
                {
                    "internalType": "uint256",
                    "name": "amountRaised",
                    "type": "uint256"
                },
                {
                    "internalType": "uint256",
                    "name": "totalSeeds",
                    "type": "uint256"
                }
            ],
            "stateMutability": "view",
            "type": "function"
        },
        {
            "inputs": [
                {
                    "internalType": "address",
                    "name": "_ceremonyAddress",
                    "type": "address"
                }
            ],
            "name": "setGraduationCeremonyAddress",
            "outputs": [],
            "stateMutability": "nonpayable",
            "type": "function"
        },
        {
            "inputs": [
                {
                    "internalType": "uint256",
                    "name": "",
                    "type": "uint256"
                },
                {
                    "internalType": "uint256",
                    "name": "",
                    "type": "uint256"
                }
            ],
            "name": "stewardCandidates",
            "outputs": [
                {
                    "internalType": "address",
                    "name": "",
                    "type": "address"
                }
            ],
            "stateMutability": "view",
            "type": "function"
        },
        {
            "inputs": [
                {
                    "internalType": "address",
                    "name": "newOwner",
                    "type": "address"
                }
            ],
            "name": "transferOwnership",
            "outputs": [],
            "stateMutability": "nonpayable",
            "type": "function"
        },
        {
            "inputs": [
                {
                    "internalType": "uint256",
                    "name": "_newMaxContribution",
                    "type": "uint256"
                }
            ],
            "name": "updateMaxContribution",
            "outputs": [],
            "stateMutability": "nonpayable",
            "type": "function"
        },
        {
            "inputs": [
                {
                    "internalType": "uint256",
                    "name": "",
                    "type": "uint256"
                },
                {
                    "internalType": "address",
                    "name": "",
                    "type": "address"
                }
            ],
            "name": "userContributions",
            "outputs": [
                {
                    "internalType": "uint256",
                    "name": "",
                    "type": "uint256"
                }
            ],
            "stateMutability": "view",
            "type": "function"
        },
        {
            "inputs": [
                {
                    "internalType": "uint256",
                    "name": "",
                    "type": "uint256"
                },
                {
                    "internalType": "address",
                    "name": "",
                    "type": "address"
                }
            ],
            "name": "userSeeds",
            "outputs": [
                {
                    "internalType": "uint256",
                    "name": "",
                    "type": "uint256"
                }
            ],
            "stateMutability": "view",
            "type": "function"
        }
    ],
    "bytecode": "0x60806040523480156200001157600080fd5b5033806200003957604051631e4fbdf760e01b81526000600482015260240160405180910390fd5b620000448162000069565b50600180556804563918244f400000600a55680456eabae07e050000600b55620000b9565b600080546001600160a01b038381166001600160a01b0319831681178455604051919092169283917f8be0079c531659141344cd1fd0a4f28419497f9722a3daafe3b4186f6b6457e09190a35050565b6134c380620000c96000396000f3fe6080604052600436106102515760003560e01c80638da5cb5b11610139578063d0ece989116100b6578063f1b9156d1161007a578063f1b9156d1461082c578063f2fde38b1461084c578063f3c54e9d1461086c578063f776449a1461088c578063f7d91664146108ac578063fb1cee4e146108cd57600080fd5b8063d0ece98914610781578063d362bf4e146107a1578063dc0c53c9146107ce578063df735c1b146107e1578063ed54890d146107f457600080fd5b8063beca3573116100fd578063beca35731461068f578063bfcfadb7146106af578063ccd3adb9146106e8578063cedf50fd14610723578063d0cbfb811461074357600080fd5b80638da5cb5b146105ea57806390ebae941461061c5780639a47469f1461063c578063af6dd0161461065c578063b4bab2041461067c57600080fd5b80634d323ff1116101d2578063715018a611610196578063715018a6146104e45780637e869fbc146104f957806380846dca1461053e57806386b6f4621461059457806388dcc629146105b45780638d3d6576146105d457600080fd5b80634d323ff11461040c57806352ddd9591461044157806354b1aaae146104615780635d0001c81461047757806363a1177c146104a457600080fd5b80633072b5bf116102195780633072b5bf146103775780633400f69c14610397578063439a23a5146103ac57806345716522146103cc5780634a70c85e146103ec57600080fd5b8063055a7f4a14610256578063113083af146102bd5780631ee757d3146102eb57806328bdc91c146103355780632d63d91914610355575b600080fd5b34801561026257600080fd5b5061029d610271366004612da4565b600760209081526000928352604080842090915290825290208054600182015460029092015490919083565b604080519384526020840192909252908201526060015b60405180910390f35b3480156102c957600080fd5b506102dd6102d8366004612de2565b610905565b6040519081526020016102b4565b3480156102f757600080fd5b506102dd610306366004612e0e565b60009283526006602090815260408085209385529281528284206001600160a01b039290921684525290205490565b34801561034157600080fd5b506102dd610350366004612e43565b61095d565b34801561036157600080fd5b50610375610370366004612e43565b6109ad565b005b34801561038357600080fd5b50610375610392366004612da4565b610c12565b3480156103a357600080fd5b506002546102dd565b3480156103b857600080fd5b506103756103c7366004612da4565b610e6f565b3480156103d857600080fd5b506103756103e7366004612e43565b611180565b3480156103f857600080fd5b506102dd610407366004612de2565b61121c565b34801561041857600080fd5b5061042c610427366004612e43565b6112d1565b604080519283526020830191909152016102b4565b34801561044d57600080fd5b5061037561045c366004612e43565b611330565b34801561046d57600080fd5b506102dd600b5481565b34801561048357600080fd5b50610497610492366004612e43565b61143b565b6040516102b49190612e5c565b3480156104b057600080fd5b506104c46104bf366004612e43565b6114c9565b6040805194855260208501939093529183015260608201526080016102b4565b3480156104f057600080fd5b5061037561153f565b34801561050557600080fd5b5061029d610514366004612da4565b60009182526007602090815260408084209284529190529020805460018201546002909201549092565b34801561054a57600080fd5b50610584610559366004612de2565b60009182526009602090815260408084206001600160a01b0393909316845291905290205460ff1690565b60405190151581526020016102b4565b3480156105a057600080fd5b506103756105af366004612e43565b611553565b3480156105c057600080fd5b506103756105cf366004612e43565b6115d7565b3480156105e057600080fd5b506102dd600a5481565b3480156105f657600080fd5b506000546001600160a01b03165b6040516001600160a01b0390911681526020016102b4565b34801561062857600080fd5b50610375610637366004612e43565b61172d565b34801561064857600080fd5b506102dd610657366004612f40565b6117d3565b34801561066857600080fd5b50600c54610604906001600160a01b031681565b61037561068a366004612e43565b611b5d565b34801561069b57600080fd5b506102dd6106aa366004612e43565b611dfb565b3480156106bb57600080fd5b506106cf6106ca366004612e43565b611e32565b6040516102b49d9c9b9a99989796959493929190613018565b3480156106f457600080fd5b50610584610703366004612de2565b600960209081526000928352604080842090915290825290205460ff1681565b34801561072f57600080fd5b506102dd61073e3660046130f0565b61207f565b34801561074f57600080fd5b506102dd61075e366004612e0e565b600660209081526000938452604080852082529284528284209052825290205481565b34801561078d57600080fd5b506102dd61079c366004612de2565b6120b0565b3480156107ad57600080fd5b506107c16107bc36600461311a565b6120fd565b6040516102b4919061313c565b6103756107dc366004612e43565b612168565b6103756107ef366004612e43565b6123a0565b34801561080057600080fd5b506102dd61080f366004612de2565b600460209081526000928352604080842090915290825290205481565b34801561083857600080fd5b50610604610847366004612da4565b6125a9565b34801561085857600080fd5b5061037561086736600461311a565b6125e1565b34801561087857600080fd5b5061037561088736600461311a565b61261c565b34801561089857600080fd5b506103756108a7366004612e43565b61270b565b3480156108b857600080fd5b50600c5461058490600160a01b900460ff1681565b3480156108d957600080fd5b506102dd6108e8366004612de2565b600560209081526000928352604080842090915290825290205481565b60025460009083106109325760405162461bcd60e51b815260040161092990613174565b60405180910390fd5b5060008281526005602090815260408083206001600160a01b03851684529091529020545b92915050565b60025460009082106109815760405162461bcd60e51b815260040161092990613174565b60028281548110610994576109946131a3565b9060005260206000209060100201600501549050919050565b6109b5612994565b60025481106109d65760405162461bcd60e51b815260040161092990613174565b6000600282815481106109eb576109eb6131a3565b60009182526020909120601090910201600881015490915060ff16610a525760405162461bcd60e51b815260206004820152601c60248201527f536565647320617265206e6f742061737369676e61626c6520796574000000006044820152606401610929565b6000828152600460209081526040808320338452909152902054610ac45760405162461bcd60e51b815260206004820152602360248201527f4e6f20636f6e747269627574696f6e7320746f20636c61696d207365656473206044820152623337b960e91b6064820152608401610929565b600082815260056020908152604080832033845290915290205415610b2b5760405162461bcd60e51b815260206004820152601f60248201527f5365656473206861766520616c7265616479206265656e20636c61696d6564006044820152606401610929565b6005810154600083815260046020908152604080832033845290915281205490610b5d82670de0b6b3a76400006131cf565b905060008385600a015483610b7291906131cf565b610b7c91906131e6565b9050610b90670de0b6b3a7640000826131e6565b60008781526005602090815260408083203384529091528120829055600b870180549293508392909190610bc5908490613208565b9091555050604051818152339087907f38ab4c465c3fa79a11f0f82607d0ab7919426c682bdce1202f2a249a9e2ec2429060200160405180910390a35050505050610c0f60018055565b50565b610c1a612994565b6002548210610c3b5760405162461bcd60e51b815260040161092990613174565b600060028381548110610c5057610c506131a3565b9060005260206000209060100201905080600c01600301548210610cb65760405162461bcd60e51b815260206004820152601e60248201527f43616e206f6e6c7920636c61696d2066726f6d20706173742073616c657300006044820152606401610929565b60008381526006602090815260408083208584528252808320338452909152902054610d3a5760405162461bcd60e51b815260206004820152602d60248201527f4e6f20636f6e747269627574696f6e7320746f20636c61696d2073656564732060448201526c666f7220746869732073616c6560981b6064820152608401610929565b600083815260076020908152604080832085845282528083208684526006835281842086855283528184203385529092528220549091610d8282670de0b6b3a76400006131cf565b60018401548454919250600091610d9990846131cf565b610da391906131e6565b9050610db7670de0b6b3a7640000826131e6565b6000888152600560209081526040808320338452909152812080549293508392909190610de5908490613208565b925050819055508085600b016000828254610e009190613208565b90915550506000878152600660209081526040808320898452825280832033808552908352818420939093555183815289917f38ab4c465c3fa79a11f0f82607d0ab7919426c682bdce1202f2a249a9e2ec242910160405180910390a35050505050610e6b60018055565b5050565b610e77612994565b6002548210610e985760405162461bcd60e51b815260040161092990613174565b600060028381548110610ead57610ead6131a3565b90600052602060002090601002019050610ec6836115d7565b610ecf8361172d565b600681015460ff1660021480610eec5750600681015460ff166004145b610f4b5760405162461bcd60e51b815260206004820152602a60248201527f53656564732063616e206f6e6c792062652072656465656d656420696e207068604482015269185cd9480c881bdc880d60b21b6064820152608401610929565b6000838152600560209081526040808320338452909152902054821115610fb45760405162461bcd60e51b815260206004820152601c60248201527f496e73756666696369656e7420736565647320746f2072656465656d000000006044820152606401610929565b600a8101546005820154670de0b6b3a7640000916000918390610fd790876131cf565b610fe191906131cf565b610feb91906131e6565b90506000610ff983836131e6565b90506000811161104b5760405162461bcd60e51b815260206004820152601b60248201527f52656465656d61626c6520616d6f756e7420746f6f20736d616c6c00000000006044820152606401610929565b8047101561109b5760405162461bcd60e51b815260206004820152601d60248201527f496e73756666696369656e7420636f6e74726163742062616c616e63650000006044820152606401610929565b6000868152600560209081526040808320338452909152812080548792906110c490849061321b565b925050819055508484600b0160008282546110df919061321b565b92505081905550808460050160008282546110fa919061321b565b9091555050604051339082156108fc029083906000818181858888f1935050505015801561112c573d6000803e3d6000fd5b506040805186815260208101839052339188917f1dc76e2a6da464d4cf237bb9b2d9fcc1249c5f4761e24c6daf56ea43a3aaf270910160405180910390a3611173866129be565b50505050610e6b60018055565b60025481106111a15760405162461bcd60e51b815260040161092990613174565b6000600282815481106111b6576111b66131a3565b60009182526020909120601090910201600681015490915060ff166002146111f05760405162461bcd60e51b81526004016109299061322e565b600c8101544210610e6b5761120482612a1b565b600681015460ff16600203610e6b57610e6b82612b7d565b60008060028481548110611232576112326131a3565b600091825260208083208784526005825260408085206001600160a01b0389168652909252922054601090910290910191508015806112735750600a820154155b1561128357600092505050610957565b600a8201546005830154670de0b6b3a76400009160009183906112a690866131cf565b6112b091906131cf565b6112ba91906131e6565b90506112c682826131e6565b979650505050505050565b600254600090819083106112f75760405162461bcd60e51b815260040161092990613174565b60006002848154811061130c5761130c6131a3565b9060005260206000209060100201905080600a015481600b01549250925050915091565b611338612994565b60025481106113595760405162461bcd60e51b815260040161092990613174565b60006002828154811061136e5761136e6131a3565b60009182526020909120601090910201600881015490915060ff1680156113ad5750600082815260046020908152604080832033845290915290205415155b80156113d057506000828152600560209081526040808320338452909152902054155b156113de576113de826109ad565b60005b600f82015481101561143057600083815260066020908152604080832084845282528083203384529091529020541561141e5761141e8382610c12565b8061142881613278565b9150506113e1565b5050610c0f60018055565b600254606090821061145f5760405162461bcd60e51b815260040161092990613174565b600082815260086020908152604091829020805483518184028101840190945280845290918301828280156114bd57602002820191906000526020600020905b81546001600160a01b0316815260019091019060200180831161149f575b50505050509050919050565b60008060008060028054905085106114f35760405162461bcd60e51b815260040161092990613174565b600060028681548110611508576115086131a3565b9060005260206000209060100201600c01905080600001548160010154826002015483600301549450945094509450509193509193565b611547612cc2565b6115516000612cef565b565b61155b612cc2565b600081116115bb5760405162461bcd60e51b815260206004820152602760248201527f4d617820636f6e747269627574696f6e206d75737420626520677265617465726044820152660207468616e20360cc1b6064820152608401610929565b600a8190556115d18166b1a2bc2ec50000613208565b600b5550565b6115df612994565b60025481106116005760405162461bcd60e51b815260040161092990613174565b600060028281548110611615576116156131a3565b6000918252602090912060066010909202019081015490915060ff166001148015611644575080600701544210155b156116ca57600a5481600501541061166a5760068101805460ff19166003179055611682565b60068101805460ff1916600217905561168282612b7d565b600019600782015560088101805460ff19166001179055600681015460405160ff9091168152829060008051602061346e8339815191529060200160405180910390a2611723565b600681015460ff1660021480156116e75750600a54816005015410155b156117235760068101805460ff19166003908117909155604051908152829060008051602061346e833981519152906020015b60405180910390a25b50610c0f60018055565b600254811061174e5760405162461bcd60e51b815260040161092990613174565b600060028281548110611763576117636131a3565b60009182526020909120601090910201600881015490915060ff1680156117a25750600082815260046020908152604080832033845290915290205415155b80156117c557506000828152600560209081526040808320338452909152902054155b15610e6b57610e6b826109ad565b60008085511161181c5760405162461bcd60e51b81526020600482015260146024820152734e616d652063616e6e6f7420626520656d70747960601b6044820152606401610929565b60008451116118665760405162461bcd60e51b815260206004820152601660248201527553796d626f6c2063616e6e6f7420626520656d70747960501b6044820152606401610929565b60018310158015611878575060038311155b6118d85760405162461bcd60e51b815260206004820152602b60248201527f436f6e747269627574696f6e20706572696f64206d75737420626520312c203260448201526a2c206f722033206461797360a81b6064820152608401610929565b6002546203f4806298968060018690036118f757620151809150611906565b85600203611906576202a30091505b6002604051806101a00160405280858152602001336001600160a01b031681526020018a815260200189815260200142815260200160008152602001600160ff16815260200184426119589190613208565b81526000602080830182905260408084018b9052606080850188905260808086018590528251908101835284815280840185905280830185905290810184905260a09094019390935284546001808201875595835291819020845160109093020191825583015193810180546001600160a01b0319166001600160a01b039095169490941790935581015190919060028201906119f5908261331a565b5060608201516003820190611a0a908261331a565b506080820151600482015560a0820151600582015560c082015160068201805460ff90921660ff1992831617905560e08301516007830155610100830151600883018054911515919092161790556101208201516009820190611a6d908261331a565b50610140820151600a820155610160820151600b820155610180909101518051600c830155602080820151600d840155604080830151600e850155606090920151600f909301929092553360008181526003845282812080546001810182559082529390209092018590555184907f6794f3d14dbc69595a3373c6d893c265bc75f3813addc6c918c39e7594b0a32e90611b0a908c908c906133da565b60405180910390a3611b516040518060400160405280601b81526020017f4e6577204461696b6f6e206372656174656420776974682049443a000000000081525084612d3f565b50909695505050505050565b611b65612994565b6002548110611b865760405162461bcd60e51b815260040161092990613174565b60003411611ba65760405162461bcd60e51b815260040161092990613408565b611baf816115d7565b600060028281548110611bc457611bc46131a3565b6000918252602090912060066010909202019081015490915060ff16600114611c415760405162461bcd60e51b815260206004820152602960248201527f436f6e747269627574696f6e7320617265206f6e6c7920616c6c6f77656420696044820152686e207068617365203160b81b6064820152608401610929565b80600701544210611c945760405162461bcd60e51b815260206004820152601d60248201527f436f6e747269627574696f6e20706572696f642068617320656e6465640000006044820152606401610929565b600a54816005015410611d015760405162461bcd60e51b815260206004820152602f60248201527f546f74616c20636f6e747269627574696f6e7320616c7265616479206174206f60448201526e722061626f7665206d6178696d756d60881b6064820152608401610929565b600b54348260050154611d149190613208565b1115611d725760405162461bcd60e51b815260206004820152602760248201527f436f6e747269627574696f6e20776f756c6420657863656564206d6178696d756044820152661b481d1bdd185b60ca1b6064820152608401610929565b34816005016000828254611d869190613208565b9091555050600082815260046020908152604080832033845290915281208054349290611db4908490613208565b9091555050604051348152339083907fee5e682f79085c85b959874a59b4897eae17b6448ab068a467169ca1b2e1a888906020015b60405180910390a350610c0f60018055565b6002546000908210611e1f5760405162461bcd60e51b815260040161092990613174565b5060009081526008602052604090205490565b60028181548110611e4257600080fd5b60009182526020909120601090910201805460018201546002830180549294506001600160a01b039091169291611e7890613291565b80601f0160208091040260200160405190810160405280929190818152602001828054611ea490613291565b8015611ef15780601f10611ec657610100808354040283529160200191611ef1565b820191906000526020600020905b815481529060010190602001808311611ed457829003601f168201915b505050505090806003018054611f0690613291565b80601f0160208091040260200160405190810160405280929190818152602001828054611f3290613291565b8015611f7f5780601f10611f5457610100808354040283529160200191611f7f565b820191906000526020600020905b815481529060010190602001808311611f6257829003601f168201915b505050600484015460058501546006860154600787015460088801546009890180549899959894975060ff93841696509194921692611fbd90613291565b80601f0160208091040260200160405190810160405280929190818152602001828054611fe990613291565b80156120365780601f1061200b57610100808354040283529160200191612036565b820191906000526020600020905b81548152906001019060200180831161201957829003601f168201915b50505050600a830154600b84015460408051608081018252600c8701548152600d8701546020820152600e87015491810191909152600f9095015460608601529293909291508d565b6003602052816000526040600020818154811061209b57600080fd5b90600052602060002001600091509150505481565b60025460009083106120d45760405162461bcd60e51b815260040161092990613174565b5060009182526004602090815260408084206001600160a01b0393909316845291905290205490565b6001600160a01b0381166000908152600360209081526040918290208054835181840281018401909452808452606093928301828280156114bd57602002820191906000526020600020905b8154815260200190600101908083116121495750505050509050919050565b612170612994565b60025481106121915760405162461bcd60e51b815260040161092990613174565b6000600282815481106121a6576121a66131a3565b906000526020600020906010020190506121bf826129be565b600681015460ff166002146121e65760405162461bcd60e51b81526004016109299061322e565b600c81015442106122395760405162461bcd60e51b815260206004820152601760248201527f506572696f6469632073616c652068617320656e6465640000000000000000006044820152606401610929565b600034116122595760405162461bcd60e51b815260040161092990613408565b600881015460ff1680156122855750600082815260046020908152604080832033845290915290205415155b80156122a857506000828152600560209081526040808320338452909152902054155b156122b6576122b6826109ad565b3481600c0160020160008282546122cd9190613208565b90915550506000828152600660209081526040808320600f8501548452825280832033845290915281208054349290612307908490613208565b9091555050600f81015460405134815233919084907f93b1aa26b459bd5cdedda89717314c6b96ab6569cbb74d776a72213cc41269ef9060200160405180910390a4600a54600e82015460058301546123609190613208565b106117235761236e82612a1b565b60068101805460ff19166003908117909155604051908152829060008051602061346e8339815191529060200161171a565b6123a8612994565b60025481106123c95760405162461bcd60e51b815260040161092990613174565b34662386f26fc100001461241f5760405162461bcd60e51b815260206004820152601c60248201527f526567697374726174696f6e2066656520697320302e303120455448000000006044820152606401610929565b600081815260096020908152604080832033845290915290205460ff16156124935760405162461bcd60e51b815260206004820152602160248201527f416c7265616479207265676973746572656420617320612063616e64696461746044820152606560f81b6064820152608401610929565b6000600282815481106124a8576124a86131a3565b600091825260209091206010909102016006810154909150600360ff909116106125245760405162461bcd60e51b815260206004820152602760248201527f43616e6e6f742072656769737465722061667465722044414f2068617320677260448201526618591d585d195960ca1b6064820152608401610929565b60008281526008602090815260408083208054600181810183559185528385200180546001600160a01b0319163390811790915586855260098452828520818652909352818420805460ff1916909117905551909184917f96834304b811e7374cfce668bef9fe39d5ec99a138cf8a630ee74b1d0ec85ad39190a350610c0f60018055565b600860205281600052604060002081815481106125c557600080fd5b6000918252602090912001546001600160a01b03169150829050565b6125e9612cc2565b6001600160a01b03811661261357604051631e4fbdf760e01b815260006004820152602401610929565b610c0f81612cef565b612624612cc2565b600c54600160a01b900460ff161561268e5760405162461bcd60e51b815260206004820152602760248201527f47726164756174696f6e20636572656d6f6e79206164647265737320616c726560448201526618591e481cd95d60ca1b6064820152608401610929565b6001600160a01b0381166126e45760405162461bcd60e51b815260206004820152601860248201527f496e76616c696420636572656d6f6e79206164647265737300000000000000006044820152606401610929565b600c80546001600160a81b0319166001600160a01b0390921691909117600160a01b179055565b612713612994565b60025481106127345760405162461bcd60e51b815260040161092990613174565b600060028281548110612749576127496131a3565b60009182526020909120601090910201600681015490915060ff166003146127c15760405162461bcd60e51b815260206004820152602560248201527f4461696b6f6e206d75737420626520696e207068617365203320746f20677261604482015264647561746560d81b6064820152608401610929565b600a54816005015410156128325760405162461bcd60e51b815260206004820152603260248201527f4461696b6f6e206d757374207265616368206d6178696d756d20636f6e747269604482015271627574696f6e20746f20677261647561746560701b6064820152608401610929565b600c54600160a01b900460ff166128975760405162461bcd60e51b815260206004820152602360248201527f47726164756174696f6e20636572656d6f6e792061646472657373206e6f74206044820152621cd95d60ea1b6064820152608401610929565b60018101546040516001600160a01b0390911690600090670de0b6b3a76400009082818181858883f193505050501580156128d6573d6000803e3d6000fd5b506000670de0b6b3a764000082600501546128f1919061321b565b600c546040519192506001600160a01b03169082156108fc029083906000818181858888f1935050505015801561292c573d6000803e3d6000fd5b5060068201805460ff1916600517905560018201546040516001600160a01b039091169084907fa15bb859d0a53fd71b7c8976210700999bb21f493f3f13ed39a29c9f4aaca2aa906129819085815260200190565b60405180910390a35050610c0f60018055565b6002600154036129b757604051633ee5aeb560e01b815260040160405180910390fd5b6002600155565b6000600282815481106129d3576129d36131a3565b60009182526020909120601090910201600681015490915060ff166002148015612a0d5750600c8101541580612a0d5750600c8101544210155b15610e6b57610e6b82612b7d565b600060028281548110612a3057612a306131a3565b9060005260206000209060100201905080600c0160020154600003612a895760068101805460ff19166004908117909155604051908152829060008051602061346e8339815191529060200160405180910390a2612b72565b60408051606081018252600d8301548152600e830180546020808401918252600a860154848601908152600088815260078352868120600f8901548252909252948120935184559051600184015592516002909201919091555460058301805491929091612af8908490613208565b9091555050600d810154600a82018054600090612b16908490613208565b9091555050600f810154600d820154600e830154600a8401546040805193845260208401929092529082015283907fc64538aebf496fa30efb3f2e30175d90106505c9e9b4f24f394587cb9647f2a69060600160405180910390a35b6000600e9091015550565b612b85612994565b600060028281548110612b9a57612b9a6131a3565b60009182526020909120601090910201600681015490915060ff16600214612bd45760405162461bcd60e51b81526004016109299061322e565b600c8101541580612be95750600c8101544210155b612c355760405162461bcd60e51b815260206004820152601b60248201527f50726576696f75732073616c6520686173206e6f7420656e64656400000000006044820152606401610929565b612c42426203f480613208565b600c820155600a80820154612c5791906131e6565b600d8201556000600e8201819055600f8201805491612c7583613278565b9091555050600f810154600c820154600d83015460405185927ff29251e38cde09bf48d0d27c4f04c8fe8e2f877462a2cca852bfc0fb8156669992611de992918252602082015260400190565b6000546001600160a01b031633146115515760405163118cdaa760e01b8152336004820152602401610929565b600080546001600160a01b038381166001600160a01b0319831681178455604051919092169283917f8be0079c531659141344cd1fd0a4f28419497f9722a3daafe3b4186f6b6457e09190a35050565b610e6b8282604051602401612d5592919061344b565b60408051601f198184030181529190526020810180516001600160e01b0316632d839cb360e21b179052610c0f8160006a636f6e736f6c652e6c6f679050600080835160208501845afa505050565b60008060408385031215612db757600080fd5b50508035926020909101359150565b80356001600160a01b0381168114612ddd57600080fd5b919050565b60008060408385031215612df557600080fd5b82359150612e0560208401612dc6565b90509250929050565b600080600060608486031215612e2357600080fd5b8335925060208401359150612e3a60408501612dc6565b90509250925092565b600060208284031215612e5557600080fd5b5035919050565b6020808252825182820181905260009190848201906040850190845b81811015611b515783516001600160a01b031683529284019291840191600101612e78565b634e487b7160e01b600052604160045260246000fd5b600082601f830112612ec457600080fd5b813567ffffffffffffffff80821115612edf57612edf612e9d565b604051601f8301601f19908116603f01168101908282118183101715612f0757612f07612e9d565b81604052838152866020858801011115612f2057600080fd5b836020870160208301376000602085830101528094505050505092915050565b60008060008060808587031215612f5657600080fd5b843567ffffffffffffffff80821115612f6e57600080fd5b612f7a88838901612eb3565b95506020870135915080821115612f9057600080fd5b612f9c88838901612eb3565b9450604087013593506060870135915080821115612fb957600080fd5b50612fc687828801612eb3565b91505092959194509250565b6000815180845260005b81811015612ff857602081850181015186830182015201612fdc565b506000602082860101526020601f19601f83011685010191505092915050565b8d81526001600160a01b038d166020820152610200604082018190526000906130438382018f612fd2565b90508281036060840152613057818e612fd2565b90508b60808401528a60a084015261307460c084018b60ff169052565b8860e084015261308961010084018915159052565b82810361012084015261309c8188612fd2565b61014084018790526101608401869052845161018085015260208501516101a085015260408501516101c085015260608501516101e085015291506130de9050565b9e9d5050505050505050505050505050565b6000806040838503121561310357600080fd5b61310c83612dc6565b946020939093013593505050565b60006020828403121561312c57600080fd5b61313582612dc6565b9392505050565b6020808252825182820181905260009190848201906040850190845b81811015611b5157835183529284019291840191600101613158565b60208082526015908201527411185a5adbdb88191bd95cc81b9bdd08195e1a5cdd605a1b604082015260600190565b634e487b7160e01b600052603260045260246000fd5b634e487b7160e01b600052601160045260246000fd5b8082028115828204841417610957576109576131b9565b60008261320357634e487b7160e01b600052601260045260246000fd5b500490565b80820180821115610957576109576131b9565b81810381811115610957576109576131b9565b6020808252602a908201527f506572696f6469632073616c657320617265206f6e6c7920616c6c6f7765642060408201526934b710383430b9b2901960b11b606082015260800190565b60006001820161328a5761328a6131b9565b5060010190565b600181811c908216806132a557607f821691505b6020821081036132c557634e487b7160e01b600052602260045260246000fd5b50919050565b601f82111561331557600081815260208120601f850160051c810160208610156132f25750805b601f850160051c820191505b81811015613311578281556001016132fe565b5050505b505050565b815167ffffffffffffffff81111561333457613334612e9d565b613348816133428454613291565b846132cb565b602080601f83116001811461337d57600084156133655750858301515b600019600386901b1c1916600185901b178555613311565b600085815260208120601f198616915b828110156133ac5788860151825594840194600190910190840161338d565b50858210156133ca5787850151600019600388901b60f8161c191681555b5050505050600190811b01905550565b6040815260006133ed6040830185612fd2565b82810360208401526133ff8185612fd2565b95945050505050565b60208082526023908201527f436f6e747269627574696f6e206d75737420626520677265617465722074686160408201526206e20360ec1b606082015260800190565b60408152600061345e6040830185612fd2565b9050826020830152939250505056fea92c850bb09d5afa4a6230f4866fad10264c6fea20047156b39e3e24c5763ad4a2646970667358221220500c6b7e50f79463012839d8bc5465382f78c3f59e423ce963bcb0b4b6029a9664736f6c63430008140033",
    "linkReferences": {},
    "deployedLinkReferences": {}
}